{
  "_format": "hh3-artifact-1",
  "contractName": "CovenantRegistry",
  "sourceName": "contracts/CovenantRegistry.sol",
  "abi": [
    {
      "anonymous": false,
      "inputs": [
        {
          "indexed": true,
          "internalType": "bytes32",
          "name": "eventId",
          "type": "bytes32"
        },
        {
          "indexed": false,
          "internalType": "bytes32",
          "name": "dataHash",
          "type": "bytes32"
        },
        {
          "indexed": false,
          "internalType": "string",
          "name": "loanId",
          "type": "string"
        },
        {
          "indexed": false,
          "internalType": "string",
          "name": "status",
          "type": "string"
        },
        {
          "indexed": false,
          "internalType": "uint256",
          "name": "timestamp",
          "type": "uint256"
        },
        {
          "indexed": false,
          "internalType": "address",
          "name": "sealedBy",
          "type": "address"
        }
      ],
      "name": "ComplianceSealed",
      "type": "event"
    },
    {
      "inputs": [
        {
          "internalType": "uint256",
          "name": "",
          "type": "uint256"
        }
      ],
      "name": "eventIds",
      "outputs": [
        {
          "internalType": "bytes32",
          "name": "",
          "type": "bytes32"
        }
      ],
      "stateMutability": "view",
      "type": "function"
    },
    {
      "inputs": [
        {
          "internalType": "bytes32",
          "name": "",
          "type": "bytes32"
        }
      ],
      "name": "events",
      "outputs": [
        {
          "internalType": "bytes32",
          "name": "dataHash",
          "type": "bytes32"
        },
        {
          "internalType": "uint256",
          "name": "timestamp",
          "type": "uint256"
        },
        {
          "internalType": "address",
          "name": "sealedBy",
          "type": "address"
        },
        {
          "internalType": "string",
          "name": "loanId",
          "type": "string"
        },
        {
          "internalType": "string",
          "name": "status",
          "type": "string"
        }
      ],
      "stateMutability": "view",
      "type": "function"
    },
    {
      "inputs": [
        {
          "internalType": "bytes32",
          "name": "_eventId",
          "type": "bytes32"
        }
      ],
      "name": "getEvent",
      "outputs": [
        {
          "internalType": "bytes32",
          "name": "dataHash",
          "type": "bytes32"
        },
        {
          "internalType": "uint256",
          "name": "timestamp",
          "type": "uint256"
        },
        {
          "internalType": "address",
          "name": "sealedBy",
          "type": "address"
        },
        {
          "internalType": "string",
          "name": "loanId",
          "type": "string"
        },
        {
          "internalType": "string",
          "name": "status",
          "type": "string"
        }
      ],
      "stateMutability": "view",
      "type": "function"
    },
    {
      "inputs": [],
      "name": "getEventCount",
      "outputs": [
        {
          "internalType": "uint256",
          "name": "count",
          "type": "uint256"
        }
      ],
      "stateMutability": "view",
      "type": "function"
    },
    {
      "inputs": [
        {
          "internalType": "bytes32",
          "name": "_dataHash",
          "type": "bytes32"
        },
        {
          "internalType": "string",
          "name": "_loanId",
          "type": "string"
        },
        {
          "internalType": "string",
          "name": "_status",
          "type": "string"
        }
      ],
      "name": "sealComplianceEvent",
      "outputs": [
        {
          "internalType": "bytes32",
          "name": "eventId",
          "type": "bytes32"
        }
      ],
      "stateMutability": "nonpayable",
      "type": "function"
    },
    {
      "inputs": [
        {
          "internalType": "bytes32",
          "name": "_eventId",
          "type": "bytes32"
        },
        {
          "internalType": "bytes32",
          "name": "_dataHash",
          "type": "bytes32"
        }
      ],
      "name": "verifyEvent",
      "outputs": [
        {
          "internalType": "bool",
          "name": "valid",
          "type": "bool"
        }
      ],
      "stateMutability": "view",
      "type": "function"
    }
  ],
  "bytecode": "0x608060405234801561001057600080fd5b50610af2806100206000396000f3fe608060405234801561001057600080fd5b50600436106100625760003560e01c80630c2e4968146100675780633abb5a181461008f5780638c172fa2146100b0578063998f6ac0146100d4578063bfdc4a61146100e7578063d9e48f5c146100fa575b600080fd5b61007a610075366004610749565b610102565b60405190151581526020015b60405180910390f35b6100a261009d36600461080e565b610288565b604051908152602001610086565b6100c36100be36600461087b565b610442565b6040516100869594939291906108da565b6100a26100e236600461087b565b6105dd565b6100c36100f536600461087b565b6105fe565b6001546100a2565b600082815260208181526040808320815160a0810183528154815260018201549381019390935260028101546001600160a01b03169183019190915260038101805484939291606084019161015690610925565b80601f016020809104026020016040519081016040528092919081815260200182805461018290610925565b80156101cf5780601f106101a4576101008083540402835291602001916101cf565b820191906000526020600020905b8154815290600101906020018083116101b257829003601f168201915b505050505081526020016004820180546101e890610925565b80601f016020809104026020016040519081016040528092919081815260200182805461021490610925565b80156102615780601f1061023657610100808354040283529160200191610261565b820191906000526020600020905b81548152906001019060200180831161024457829003601f168201915b5050505050815250509050600081602001511180156102805750805183145b949350505050565b60008342336040516020016102c293929190928352602083019190915260601b6bffffffffffffffffffffffff1916604082015260540190565b60408051601f198184030181529181528151602092830120600081815292839052912060010154909150156103345760405162461bcd60e51b81526020600482015260146024820152734576656e7420616c72656164792065786973747360601b604482015260640160405180910390fd5b6040805160a081018252858152426020808301918252338385019081526060840188815260808501889052600087815292839052949091208351815591516001830155516002820180546001600160a01b0319166001600160a01b03909216919091179055915190919060038201906103ad90826109ae565b50608082015160048201906103c290826109ae565b50506001805480820182556000919091527fb10e2d527612073b26eecdfd717e6a320cf44b4afac2b0732d9fcbe2b7fa0cf6018290555060405181907f9e02253bcc9993347e725c965b3176028a38d209b31bf1263316dbc946b52ddf906104339087908790879042903390610a6e565b60405180910390a29392505050565b600081815260208181526040808320815160a0810183528154815260018201549381019390935260028101546001600160a01b031691830191909152600381018054849384936060938493869392918386019161049e90610925565b80601f01602080910402602001604051908101604052809291908181526020018280546104ca90610925565b80156105175780601f106104ec57610100808354040283529160200191610517565b820191906000526020600020905b8154815290600101906020018083116104fa57829003601f168201915b5050505050815260200160048201805461053090610925565b80601f016020809104026020016040519081016040528092919081815260200182805461055c90610925565b80156105a95780601f1061057e576101008083540402835291602001916105a9565b820191906000526020600020905b81548152906001019060200180831161058c57829003601f168201915b5050509190925250508151602083015160408401516060850151608090950151929c919b5099509297509550909350505050565b600181815481106105ed57600080fd5b600091825260209091200154905081565b6000602081905290815260409020805460018201546002830154600384018054939492936001600160a01b03909216929161063890610925565b80601f016020809104026020016040519081016040528092919081815260200182805461066490610925565b80156106b15780601f10610686576101008083540402835291602001916106b1565b820191906000526020600020905b81548152906001019060200180831161069457829003601f168201915b5050505050908060040180546106c690610925565b80601f01602080910402602001604051908101604052809291908181526020018280546106f290610925565b801561073f5780601f106107145761010080835404028352916020019161073f565b820191906000526020600020905b81548152906001019060200180831161072257829003601f168201915b5050505050905085565b6000806040838503121561075c57600080fd5b50508035926020909101359150565b634e487b7160e01b600052604160045260246000fd5b600082601f83011261079257600080fd5b813567ffffffffffffffff808211156107ad576107ad61076b565b604051601f8301601f19908116603f011681019082821181831017156107d5576107d561076b565b816040528381528660208588010111156107ee57600080fd5b836020870160208301376000602085830101528094505050505092915050565b60008060006060848603121561082357600080fd5b83359250602084013567ffffffffffffffff8082111561084257600080fd5b61084e87838801610781565b9350604086013591508082111561086457600080fd5b5061087186828701610781565b9150509250925092565b60006020828403121561088d57600080fd5b5035919050565b6000815180845260005b818110156108ba5760208185018101518683018201520161089e565b506000602082860101526020601f19601f83011685010191505092915050565b85815284602082015260018060a01b038416604082015260a06060820152600061090760a0830185610894565b82810360808401526109198185610894565b98975050505050505050565b600181811c9082168061093957607f821691505b60208210810361095957634e487b7160e01b600052602260045260246000fd5b50919050565b601f8211156109a957600081815260208120601f850160051c810160208610156109865750805b601f850160051c820191505b818110156109a557828155600101610992565b5050505b505050565b815167ffffffffffffffff8111156109c8576109c861076b565b6109dc816109d68454610925565b8461095f565b602080601f831160018114610a1157600084156109f95750858301515b600019600386901b1c1916600185901b1785556109a5565b600085815260208120601f198616915b82811015610a4057888601518255948401946001909101908401610a21565b5085821015610a5e5787850151600019600388901b60f8161c191681555b5050505050600190811b01905550565b85815260a060208201526000610a8760a0830187610894565b8281036040840152610a998187610894565b606084019590955250506001600160a01b0391909116608090910152939250505056fea26469706673582212208d6bd3ab1858f02db915542d02d6c4bbef12e23ca21e838a3f637ae2e539c4bf64736f6c63430008130033",
  "linkReferences": {},
  "deployedLinkReferences": {},
  "immutableReferences": {},
  "inputSourceName": "project/contracts/CovenantRegistry.sol",
  "buildInfoId": "solc-0_8_19-bce322125926925421b1edae239001cbe371caf6"
}